{"contracts/VerifySignature.sol":{"VerifySignature":{"abi":[{"inputs":[{"internalType":"address","name":"_signer","type":"address"},{"internalType":"string","name":"_message","type":"string"},{"internalType":"uint256","name":"_nonce","type":"uint256"},{"internalType":"bytes","name":"signature","type":"bytes"}],"name":"verify","outputs":[{"internalType":"bool","name":"","type":"bool"}],"stateMutability":"pure","type":"function"}],"evm":{"bytecode":{"linkReferences":{},"object":"608060405234801561001057600080fd5b5061083e806100206000396000f3fe608060405234801561001057600080fd5b506004361061002b5760003560e01c806307546f1a14610030575b600080fd5b61004a6004803603810190610045919061048d565b610060565b6040516100579190610547565b60405180910390f35b60008061006e8686866100c1565b9050600061007b826100f7565b90508673ffffffffffffffffffffffffffffffffffffffff1661009e8286610127565b73ffffffffffffffffffffffffffffffffffffffff161492505050949350505050565b60008383836040516020016100d893929190610645565b6040516020818303038152906040528051906020012090509392505050565b60008160405160200161010a91906106f5565b604051602081830303815290604052805190602001209050919050565b60008060008061013685610196565b9250925092506001868285856040516000815260200160405260405161015f9493929190610746565b6020604051602081039080840390855afa158015610181573d6000803e3d6000fd5b50505060206040510351935050505092915050565b600080600060418451146101df576040517f08c379a00000000000000000000000000000000000000000000000000000000081526004016101d6906107e8565b60405180910390fd5b6020840151925060408401519150606084015160001a90509193909250565b6000604051905090565b600080fd5b600080fd5b600073ffffffffffffffffffffffffffffffffffffffff82169050919050565b600061023d82610212565b9050919050565b61024d81610232565b811461025857600080fd5b50565b60008135905061026a81610244565b92915050565b600080fd5b600080fd5b6000601f19601f8301169050919050565b7f4e487b7100000000000000000000000000000000000000000000000000000000600052604160045260246000fd5b6102c38261027a565b810181811067ffffffffffffffff821117156102e2576102e161028b565b5b80604052505050565b60006102f56101fe565b905061030182826102ba565b919050565b600067ffffffffffffffff8211156103215761032061028b565b5b61032a8261027a565b9050602081019050919050565b82818337600083830152505050565b600061035961035484610306565b6102eb565b90508281526020810184848401111561037557610374610275565b5b610380848285610337565b509392505050565b600082601f83011261039d5761039c610270565b5b81356103ad848260208601610346565b91505092915050565b6000819050919050565b6103c9816103b6565b81146103d457600080fd5b50565b6000813590506103e6816103c0565b92915050565b600067ffffffffffffffff8211156104075761040661028b565b5b6104108261027a565b9050602081019050919050565b600061043061042b846103ec565b6102eb565b90508281526020810184848401111561044c5761044b610275565b5b610457848285610337565b509392505050565b600082601f83011261047457610473610270565b5b813561048484826020860161041d565b91505092915050565b600080600080608085870312156104a7576104a6610208565b5b60006104b58782880161025b565b945050602085013567ffffffffffffffff8111156104d6576104d561020d565b5b6104e287828801610388565b93505060406104f3878288016103d7565b925050606085013567ffffffffffffffff8111156105145761051361020d565b5b6105208782880161045f565b91505092959194509250565b60008115159050919050565b6105418161052c565b82525050565b600060208201905061055c6000830184610538565b92915050565b60008160601b9050919050565b600061057a82610562565b9050919050565b600061058c8261056f565b9050919050565b6105a461059f82610232565b610581565b82525050565b600081519050919050565b600081905092915050565b60005b838110156105de5780820151818401526020810190506105c3565b838111156105ed576000848401525b50505050565b60006105fe826105aa565b61060881856105b5565b93506106188185602086016105c0565b80840191505092915050565b6000819050919050565b61063f61063a826103b6565b610624565b82525050565b60006106518286610593565b60148201915061066182856105f3565b915061066d828461062e565b602082019150819050949350505050565b7f19457468657265756d205369676e6564204d6573736167653a0a333200000000600082015250565b60006106b4601c836105b5565b91506106bf8261067e565b601c82019050919050565b6000819050919050565b6000819050919050565b6106ef6106ea826106ca565b6106d4565b82525050565b6000610700826106a7565b915061070c82846106de565b60208201915081905092915050565b610724816106ca565b82525050565b600060ff82169050919050565b6107408161072a565b82525050565b600060808201905061075b600083018761071b565b6107686020830186610737565b610775604083018561071b565b610782606083018461071b565b95945050505050565b600082825260208201905092915050565b7f696e76616c6964207369676e6174757265206c656e6774680000000000000000600082015250565b60006107d260188361078b565b91506107dd8261079c565b602082019050919050565b60006020820190508181036000830152610801816107c5565b905091905056fea26469706673582212203a9bce5322093facc7a9592183dd2fad364b763cfa24af267ef81e1fb02994d164736f6c63430008090033","opcodes":"PUSH1 0x80 PUSH1 0x40 MSTORE CALLVALUE DUP1 ISZERO PUSH2 0x10 JUMPI PUSH1 0x0 DUP1 REVERT JUMPDEST POP PUSH2 0x83E DUP1 PUSH2 0x20 PUSH1 0x0 CODECOPY PUSH1 0x0 RETURN INVALID PUSH1 0x80 PUSH1 0x40 MSTORE CALLVALUE DUP1 ISZERO PUSH2 0x10 JUMPI PUSH1 0x0 DUP1 REVERT JUMPDEST POP PUSH1 0x4 CALLDATASIZE LT PUSH2 0x2B JUMPI PUSH1 0x0 CALLDATALOAD PUSH1 0xE0 SHR DUP1 PUSH4 0x7546F1A EQ PUSH2 0x30 JUMPI JUMPDEST PUSH1 0x0 DUP1 REVERT JUMPDEST PUSH2 0x4A PUSH1 0x4 DUP1 CALLDATASIZE SUB DUP2 ADD SWAP1 PUSH2 0x45 SWAP2 SWAP1 PUSH2 0x48D JUMP JUMPDEST PUSH2 0x60 JUMP JUMPDEST PUSH1 0x40 MLOAD PUSH2 0x57 SWAP2 SWAP1 PUSH2 0x547 JUMP JUMPDEST PUSH1 0x40 MLOAD DUP1 SWAP2 SUB SWAP1 RETURN JUMPDEST PUSH1 0x0 DUP1 PUSH2 0x6E DUP7 DUP7 DUP7 PUSH2 0xC1 JUMP JUMPDEST SWAP1 POP PUSH1 0x0 PUSH2 0x7B DUP3 PUSH2 0xF7 JUMP JUMPDEST SWAP1 POP DUP7 PUSH20 0xFFFFFFFFFFFFFFFFFFFFFFFFFFFFFFFFFFFFFFFF AND PUSH2 0x9E DUP3 DUP7 PUSH2 0x127 JUMP JUMPDEST PUSH20 0xFFFFFFFFFFFFFFFFFFFFFFFFFFFFFFFFFFFFFFFF AND EQ SWAP3 POP POP POP SWAP5 SWAP4 POP POP POP POP JUMP JUMPDEST PUSH1 0x0 DUP4 DUP4 DUP4 PUSH1 0x40 MLOAD PUSH1 0x20 ADD PUSH2 0xD8 SWAP4 SWAP3 SWAP2 SWAP1 PUSH2 0x645 JUMP JUMPDEST PUSH1 0x40 MLOAD PUSH1 0x20 DUP2 DUP4 SUB SUB DUP2 MSTORE SWAP1 PUSH1 0x40 MSTORE DUP1 MLOAD SWAP1 PUSH1 0x20 ADD KECCAK256 SWAP1 POP SWAP4 SWAP3 POP POP POP JUMP JUMPDEST PUSH1 0x0 DUP2 PUSH1 0x40 MLOAD PUSH1 0x20 ADD PUSH2 0x10A SWAP2 SWAP1 PUSH2 0x6F5 JUMP JUMPDEST PUSH1 0x40 MLOAD PUSH1 0x20 DUP2 DUP4 SUB SUB DUP2 MSTORE SWAP1 PUSH1 0x40 MSTORE DUP1 MLOAD SWAP1 PUSH1 0x20 ADD KECCAK256 SWAP1 POP SWAP2 SWAP1 POP JUMP JUMPDEST PUSH1 0x0 DUP1 PUSH1 0x0 DUP1 PUSH2 0x136 DUP6 PUSH2 0x196 JUMP JUMPDEST SWAP3 POP SWAP3 POP SWAP3 POP PUSH1 0x1 DUP7 DUP3 DUP6 DUP6 PUSH1 0x40 MLOAD PUSH1 0x0 DUP2 MSTORE PUSH1 0x20 ADD PUSH1 0x40 MSTORE PUSH1 0x40 MLOAD PUSH2 0x15F SWAP5 SWAP4 SWAP3 SWAP2 SWAP1 PUSH2 0x746 JUMP JUMPDEST PUSH1 0x20 PUSH1 0x40 MLOAD PUSH1 0x20 DUP2 SUB SWAP1 DUP1 DUP5 SUB SWAP1 DUP6 GAS STATICCALL ISZERO DUP1 ISZERO PUSH2 0x181 JUMPI RETURNDATASIZE PUSH1 0x0 DUP1 RETURNDATACOPY RETURNDATASIZE PUSH1 0x0 REVERT JUMPDEST POP POP POP PUSH1 0x20 PUSH1 0x40 MLOAD SUB MLOAD SWAP4 POP POP POP POP SWAP3 SWAP2 POP POP JUMP JUMPDEST PUSH1 0x0 DUP1 PUSH1 0x0 PUSH1 0x41 DUP5 MLOAD EQ PUSH2 0x1DF JUMPI PUSH1 0x40 MLOAD PUSH32 0x8C379A000000000000000000000000000000000000000000000000000000000 DUP2 MSTORE PUSH1 0x4 ADD PUSH2 0x1D6 SWAP1 PUSH2 0x7E8 JUMP JUMPDEST PUSH1 0x40 MLOAD DUP1 SWAP2 SUB SWAP1 REVERT JUMPDEST PUSH1 0x20 DUP5 ADD MLOAD SWAP3 POP PUSH1 0x40 DUP5 ADD MLOAD SWAP2 POP PUSH1 0x60 DUP5 ADD MLOAD PUSH1 0x0 BYTE SWAP1 POP SWAP2 SWAP4 SWAP1 SWAP3 POP JUMP JUMPDEST PUSH1 0x0 PUSH1 0x40 MLOAD SWAP1 POP SWAP1 JUMP JUMPDEST PUSH1 0x0 DUP1 REVERT JUMPDEST PUSH1 0x0 DUP1 REVERT JUMPDEST PUSH1 0x0 PUSH20 0xFFFFFFFFFFFFFFFFFFFFFFFFFFFFFFFFFFFFFFFF DUP3 AND SWAP1 POP SWAP2 SWAP1 POP JUMP JUMPDEST PUSH1 0x0 PUSH2 0x23D DUP3 PUSH2 0x212 JUMP JUMPDEST SWAP1 POP SWAP2 SWAP1 POP JUMP JUMPDEST PUSH2 0x24D DUP2 PUSH2 0x232 JUMP JUMPDEST DUP2 EQ PUSH2 0x258 JUMPI PUSH1 0x0 DUP1 REVERT JUMPDEST POP JUMP JUMPDEST PUSH1 0x0 DUP2 CALLDATALOAD SWAP1 POP PUSH2 0x26A DUP2 PUSH2 0x244 JUMP JUMPDEST SWAP3 SWAP2 POP POP JUMP JUMPDEST PUSH1 0x0 DUP1 REVERT JUMPDEST PUSH1 0x0 DUP1 REVERT JUMPDEST PUSH1 0x0 PUSH1 0x1F NOT PUSH1 0x1F DUP4 ADD AND SWAP1 POP SWAP2 SWAP1 POP JUMP JUMPDEST PUSH32 0x4E487B7100000000000000000000000000000000000000000000000000000000 PUSH1 0x0 MSTORE PUSH1 0x41 PUSH1 0x4 MSTORE PUSH1 0x24 PUSH1 0x0 REVERT JUMPDEST PUSH2 0x2C3 DUP3 PUSH2 0x27A JUMP JUMPDEST DUP2 ADD DUP2 DUP2 LT PUSH8 0xFFFFFFFFFFFFFFFF DUP3 GT OR ISZERO PUSH2 0x2E2 JUMPI PUSH2 0x2E1 PUSH2 0x28B JUMP JUMPDEST JUMPDEST DUP1 PUSH1 0x40 MSTORE POP POP POP JUMP JUMPDEST PUSH1 0x0 PUSH2 0x2F5 PUSH2 0x1FE JUMP JUMPDEST SWAP1 POP PUSH2 0x301 DUP3 DUP3 PUSH2 0x2BA JUMP JUMPDEST SWAP2 SWAP1 POP JUMP JUMPDEST PUSH1 0x0 PUSH8 0xFFFFFFFFFFFFFFFF DUP3 GT ISZERO PUSH2 0x321 JUMPI PUSH2 0x320 PUSH2 0x28B JUMP JUMPDEST JUMPDEST PUSH2 0x32A DUP3 PUSH2 0x27A JUMP JUMPDEST SWAP1 POP PUSH1 0x20 DUP2 ADD SWAP1 POP SWAP2 SWAP1 POP JUMP JUMPDEST DUP3 DUP2 DUP4 CALLDATACOPY PUSH1 0x0 DUP4 DUP4 ADD MSTORE POP POP POP JUMP JUMPDEST PUSH1 0x0 PUSH2 0x359 PUSH2 0x354 DUP5 PUSH2 0x306 JUMP JUMPDEST PUSH2 0x2EB JUMP JUMPDEST SWAP1 POP DUP3 DUP2 MSTORE PUSH1 0x20 DUP2 ADD DUP5 DUP5 DUP5 ADD GT ISZERO PUSH2 0x375 JUMPI PUSH2 0x374 PUSH2 0x275 JUMP JUMPDEST JUMPDEST PUSH2 0x380 DUP5 DUP3 DUP6 PUSH2 0x337 JUMP JUMPDEST POP SWAP4 SWAP3 POP POP POP JUMP JUMPDEST PUSH1 0x0 DUP3 PUSH1 0x1F DUP4 ADD SLT PUSH2 0x39D JUMPI PUSH2 0x39C PUSH2 0x270 JUMP JUMPDEST JUMPDEST DUP2 CALLDATALOAD PUSH2 0x3AD DUP5 DUP3 PUSH1 0x20 DUP7 ADD PUSH2 0x346 JUMP JUMPDEST SWAP2 POP POP SWAP3 SWAP2 POP POP JUMP JUMPDEST PUSH1 0x0 DUP2 SWAP1 POP SWAP2 SWAP1 POP JUMP JUMPDEST PUSH2 0x3C9 DUP2 PUSH2 0x3B6 JUMP JUMPDEST DUP2 EQ PUSH2 0x3D4 JUMPI PUSH1 0x0 DUP1 REVERT JUMPDEST POP JUMP JUMPDEST PUSH1 0x0 DUP2 CALLDATALOAD SWAP1 POP PUSH2 0x3E6 DUP2 PUSH2 0x3C0 JUMP JUMPDEST SWAP3 SWAP2 POP POP JUMP JUMPDEST PUSH1 0x0 PUSH8 0xFFFFFFFFFFFFFFFF DUP3 GT ISZERO PUSH2 0x407 JUMPI PUSH2 0x406 PUSH2 0x28B JUMP JUMPDEST JUMPDEST PUSH2 0x410 DUP3 PUSH2 0x27A JUMP JUMPDEST SWAP1 POP PUSH1 0x20 DUP2 ADD SWAP1 POP SWAP2 SWAP1 POP JUMP JUMPDEST PUSH1 0x0 PUSH2 0x430 PUSH2 0x42B DUP5 PUSH2 0x3EC JUMP JUMPDEST PUSH2 0x2EB JUMP JUMPDEST SWAP1 POP DUP3 DUP2 MSTORE PUSH1 0x20 DUP2 ADD DUP5 DUP5 DUP5 ADD GT ISZERO PUSH2 0x44C JUMPI PUSH2 0x44B PUSH2 0x275 JUMP JUMPDEST JUMPDEST PUSH2 0x457 DUP5 DUP3 DUP6 PUSH2 0x337 JUMP JUMPDEST POP SWAP4 SWAP3 POP POP POP JUMP JUMPDEST PUSH1 0x0 DUP3 PUSH1 0x1F DUP4 ADD SLT PUSH2 0x474 JUMPI PUSH2 0x473 PUSH2 0x270 JUMP JUMPDEST JUMPDEST DUP2 CALLDATALOAD PUSH2 0x484 DUP5 DUP3 PUSH1 0x20 DUP7 ADD PUSH2 0x41D JUMP JUMPDEST SWAP2 POP POP SWAP3 SWAP2 POP POP JUMP JUMPDEST PUSH1 0x0 DUP1 PUSH1 0x0 DUP1 PUSH1 0x80 DUP6 DUP8 SUB SLT ISZERO PUSH2 0x4A7 JUMPI PUSH2 0x4A6 PUSH2 0x208 JUMP JUMPDEST JUMPDEST PUSH1 0x0 PUSH2 0x4B5 DUP8 DUP3 DUP9 ADD PUSH2 0x25B JUMP JUMPDEST SWAP5 POP POP PUSH1 0x20 DUP6 ADD CALLDATALOAD PUSH8 0xFFFFFFFFFFFFFFFF DUP2 GT ISZERO PUSH2 0x4D6 JUMPI PUSH2 0x4D5 PUSH2 0x20D JUMP JUMPDEST JUMPDEST PUSH2 0x4E2 DUP8 DUP3 DUP9 ADD PUSH2 0x388 JUMP JUMPDEST SWAP4 POP POP PUSH1 0x40 PUSH2 0x4F3 DUP8 DUP3 DUP9 ADD PUSH2 0x3D7 JUMP JUMPDEST SWAP3 POP POP PUSH1 0x60 DUP6 ADD CALLDATALOAD PUSH8 0xFFFFFFFFFFFFFFFF DUP2 GT ISZERO PUSH2 0x514 JUMPI PUSH2 0x513 PUSH2 0x20D JUMP JUMPDEST JUMPDEST PUSH2 0x520 DUP8 DUP3 DUP9 ADD PUSH2 0x45F JUMP JUMPDEST SWAP2 POP POP SWAP3 SWAP6 SWAP2 SWAP5 POP SWAP3 POP JUMP JUMPDEST PUSH1 0x0 DUP2 ISZERO ISZERO SWAP1 POP SWAP2 SWAP1 POP JUMP JUMPDEST PUSH2 0x541 DUP2 PUSH2 0x52C JUMP JUMPDEST DUP3 MSTORE POP POP JUMP JUMPDEST PUSH1 0x0 PUSH1 0x20 DUP3 ADD SWAP1 POP PUSH2 0x55C PUSH1 0x0 DUP4 ADD DUP5 PUSH2 0x538 JUMP JUMPDEST SWAP3 SWAP2 POP POP JUMP JUMPDEST PUSH1 0x0 DUP2 PUSH1 0x60 SHL SWAP1 POP SWAP2 SWAP1 POP JUMP JUMPDEST PUSH1 0x0 PUSH2 0x57A DUP3 PUSH2 0x562 JUMP JUMPDEST SWAP1 POP SWAP2 SWAP1 POP JUMP JUMPDEST PUSH1 0x0 PUSH2 0x58C DUP3 PUSH2 0x56F JUMP JUMPDEST SWAP1 POP SWAP2 SWAP1 POP JUMP JUMPDEST PUSH2 0x5A4 PUSH2 0x59F DUP3 PUSH2 0x232 JUMP JUMPDEST PUSH2 0x581 JUMP JUMPDEST DUP3 MSTORE POP POP JUMP JUMPDEST PUSH1 0x0 DUP2 MLOAD SWAP1 POP SWAP2 SWAP1 POP JUMP JUMPDEST PUSH1 0x0 DUP2 SWAP1 POP SWAP3 SWAP2 POP POP JUMP JUMPDEST PUSH1 0x0 JUMPDEST DUP4 DUP2 LT ISZERO PUSH2 0x5DE JUMPI DUP1 DUP3 ADD MLOAD DUP2 DUP5 ADD MSTORE PUSH1 0x20 DUP2 ADD SWAP1 POP PUSH2 0x5C3 JUMP JUMPDEST DUP4 DUP2 GT ISZERO PUSH2 0x5ED JUMPI PUSH1 0x0 DUP5 DUP5 ADD MSTORE JUMPDEST POP POP POP POP JUMP JUMPDEST PUSH1 0x0 PUSH2 0x5FE DUP3 PUSH2 0x5AA JUMP JUMPDEST PUSH2 0x608 DUP2 DUP6 PUSH2 0x5B5 JUMP JUMPDEST SWAP4 POP PUSH2 0x618 DUP2 DUP6 PUSH1 0x20 DUP7 ADD PUSH2 0x5C0 JUMP JUMPDEST DUP1 DUP5 ADD SWAP2 POP POP SWAP3 SWAP2 POP POP JUMP JUMPDEST PUSH1 0x0 DUP2 SWAP1 POP SWAP2 SWAP1 POP JUMP JUMPDEST PUSH2 0x63F PUSH2 0x63A DUP3 PUSH2 0x3B6 JUMP JUMPDEST PUSH2 0x624 JUMP JUMPDEST DUP3 MSTORE POP POP JUMP JUMPDEST PUSH1 0x0 PUSH2 0x651 DUP3 DUP7 PUSH2 0x593 JUMP JUMPDEST PUSH1 0x14 DUP3 ADD SWAP2 POP PUSH2 0x661 DUP3 DUP6 PUSH2 0x5F3 JUMP JUMPDEST SWAP2 POP PUSH2 0x66D DUP3 DUP5 PUSH2 0x62E JUMP JUMPDEST PUSH1 0x20 DUP3 ADD SWAP2 POP DUP2 SWAP1 POP SWAP5 SWAP4 POP POP POP POP JUMP JUMPDEST PUSH32 0x19457468657265756D205369676E6564204D6573736167653A0A333200000000 PUSH1 0x0 DUP3 ADD MSTORE POP JUMP JUMPDEST PUSH1 0x0 PUSH2 0x6B4 PUSH1 0x1C DUP4 PUSH2 0x5B5 JUMP JUMPDEST SWAP2 POP PUSH2 0x6BF DUP3 PUSH2 0x67E JUMP JUMPDEST PUSH1 0x1C DUP3 ADD SWAP1 POP SWAP2 SWAP1 POP JUMP JUMPDEST PUSH1 0x0 DUP2 SWAP1 POP SWAP2 SWAP1 POP JUMP JUMPDEST PUSH1 0x0 DUP2 SWAP1 POP SWAP2 SWAP1 POP JUMP JUMPDEST PUSH2 0x6EF PUSH2 0x6EA DUP3 PUSH2 0x6CA JUMP JUMPDEST PUSH2 0x6D4 JUMP JUMPDEST DUP3 MSTORE POP POP JUMP JUMPDEST PUSH1 0x0 PUSH2 0x700 DUP3 PUSH2 0x6A7 JUMP JUMPDEST SWAP2 POP PUSH2 0x70C DUP3 DUP5 PUSH2 0x6DE JUMP JUMPDEST PUSH1 0x20 DUP3 ADD SWAP2 POP DUP2 SWAP1 POP SWAP3 SWAP2 POP POP JUMP JUMPDEST PUSH2 0x724 DUP2 PUSH2 0x6CA JUMP JUMPDEST DUP3 MSTORE POP POP JUMP JUMPDEST PUSH1 0x0 PUSH1 0xFF DUP3 AND SWAP1 POP SWAP2 SWAP1 POP JUMP JUMPDEST PUSH2 0x740 DUP2 PUSH2 0x72A JUMP JUMPDEST DUP3 MSTORE POP POP JUMP JUMPDEST PUSH1 0x0 PUSH1 0x80 DUP3 ADD SWAP1 POP PUSH2 0x75B PUSH1 0x0 DUP4 ADD DUP8 PUSH2 0x71B JUMP JUMPDEST PUSH2 0x768 PUSH1 0x20 DUP4 ADD DUP7 PUSH2 0x737 JUMP JUMPDEST PUSH2 0x775 PUSH1 0x40 DUP4 ADD DUP6 PUSH2 0x71B JUMP JUMPDEST PUSH2 0x782 PUSH1 0x60 DUP4 ADD DUP5 PUSH2 0x71B JUMP JUMPDEST SWAP6 SWAP5 POP POP POP POP POP JUMP JUMPDEST PUSH1 0x0 DUP3 DUP3 MSTORE PUSH1 0x20 DUP3 ADD SWAP1 POP SWAP3 SWAP2 POP POP JUMP JUMPDEST PUSH32 0x696E76616C6964207369676E6174757265206C656E6774680000000000000000 PUSH1 0x0 DUP3 ADD MSTORE POP JUMP JUMPDEST PUSH1 0x0 PUSH2 0x7D2 PUSH1 0x18 DUP4 PUSH2 0x78B JUMP JUMPDEST SWAP2 POP PUSH2 0x7DD DUP3 PUSH2 0x79C JUMP JUMPDEST PUSH1 0x20 DUP3 ADD SWAP1 POP SWAP2 SWAP1 POP JUMP JUMPDEST PUSH1 0x0 PUSH1 0x20 DUP3 ADD SWAP1 POP DUP2 DUP2 SUB PUSH1 0x0 DUP4 ADD MSTORE PUSH2 0x801 DUP2 PUSH2 0x7C5 JUMP JUMPDEST SWAP1 POP SWAP2 SWAP1 POP JUMP INVALID LOG2 PUSH5 0x6970667358 0x22 SLT KECCAK256 GASPRICE SWAP12 0xCE MSTORE8 0x22 MULMOD EXTCODEHASH 0xAC 0xC7 0xA9 MSIZE 0x21 DUP4 0xDD 0x2F 0xAD CALLDATASIZE 0x4B PUSH23 0x3CFA24AF267EF81E1FB02994D164736F6C634300080900 CALLER "},"methodIdentifiers":{"verify(address,string,uint256,bytes)":"07546f1a"}}}}}