{
  "_format": "hh-sol-artifact-1",
  "contractName": "VerifySignature",
  "sourceName": "contracts/VerifySignature.sol",
  "abi": [
    {
      "inputs": [
        {
          "internalType": "address",
          "name": "_signer",
          "type": "address"
        },
        {
          "internalType": "string",
          "name": "_message",
          "type": "string"
        },
        {
          "internalType": "uint256",
          "name": "_nonce",
          "type": "uint256"
        },
        {
          "internalType": "bytes",
          "name": "signature",
          "type": "bytes"
        }
      ],
      "name": "verify",
      "outputs": [
        {
          "internalType": "bool",
          "name": "",
          "type": "bool"
        }
      ],
      "stateMutability": "pure",
      "type": "function"
    }
  ],
  "bytecode": "0x608060405234801561001057600080fd5b5061083e806100206000396000f3fe608060405234801561001057600080fd5b506004361061002b5760003560e01c806307546f1a14610030575b600080fd5b61004a6004803603810190610045919061048d565b610060565b6040516100579190610547565b60405180910390f35b60008061006e8686866100c1565b9050600061007b826100f7565b90508673ffffffffffffffffffffffffffffffffffffffff1661009e8286610127565b73ffffffffffffffffffffffffffffffffffffffff161492505050949350505050565b60008383836040516020016100d893929190610645565b6040516020818303038152906040528051906020012090509392505050565b60008160405160200161010a91906106f5565b604051602081830303815290604052805190602001209050919050565b60008060008061013685610196565b9250925092506001868285856040516000815260200160405260405161015f9493929190610746565b6020604051602081039080840390855afa158015610181573d6000803e3d6000fd5b50505060206040510351935050505092915050565b600080600060418451146101df576040517f08c379a00000000000000000000000000000000000000000000000000000000081526004016101d6906107e8565b60405180910390fd5b6020840151925060408401519150606084015160001a90509193909250565b6000604051905090565b600080fd5b600080fd5b600073ffffffffffffffffffffffffffffffffffffffff82169050919050565b600061023d82610212565b9050919050565b61024d81610232565b811461025857600080fd5b50565b60008135905061026a81610244565b92915050565b600080fd5b600080fd5b6000601f19601f8301169050919050565b7f4e487b7100000000000000000000000000000000000000000000000000000000600052604160045260246000fd5b6102c38261027a565b810181811067ffffffffffffffff821117156102e2576102e161028b565b5b80604052505050565b60006102f56101fe565b905061030182826102ba565b919050565b600067ffffffffffffffff8211156103215761032061028b565b5b61032a8261027a565b9050602081019050919050565b82818337600083830152505050565b600061035961035484610306565b6102eb565b90508281526020810184848401111561037557610374610275565b5b610380848285610337565b509392505050565b600082601f83011261039d5761039c610270565b5b81356103ad848260208601610346565b91505092915050565b6000819050919050565b6103c9816103b6565b81146103d457600080fd5b50565b6000813590506103e6816103c0565b92915050565b600067ffffffffffffffff8211156104075761040661028b565b5b6104108261027a565b9050602081019050919050565b600061043061042b846103ec565b6102eb565b90508281526020810184848401111561044c5761044b610275565b5b610457848285610337565b509392505050565b600082601f83011261047457610473610270565b5b813561048484826020860161041d565b91505092915050565b600080600080608085870312156104a7576104a6610208565b5b60006104b58782880161025b565b945050602085013567ffffffffffffffff8111156104d6576104d561020d565b5b6104e287828801610388565b93505060406104f3878288016103d7565b925050606085013567ffffffffffffffff8111156105145761051361020d565b5b6105208782880161045f565b91505092959194509250565b60008115159050919050565b6105418161052c565b82525050565b600060208201905061055c6000830184610538565b92915050565b60008160601b9050919050565b600061057a82610562565b9050919050565b600061058c8261056f565b9050919050565b6105a461059f82610232565b610581565b82525050565b600081519050919050565b600081905092915050565b60005b838110156105de5780820151818401526020810190506105c3565b838111156105ed576000848401525b50505050565b60006105fe826105aa565b61060881856105b5565b93506106188185602086016105c0565b80840191505092915050565b6000819050919050565b61063f61063a826103b6565b610624565b82525050565b60006106518286610593565b60148201915061066182856105f3565b915061066d828461062e565b602082019150819050949350505050565b7f19457468657265756d205369676e6564204d6573736167653a0a333200000000600082015250565b60006106b4601c836105b5565b91506106bf8261067e565b601c82019050919050565b6000819050919050565b6000819050919050565b6106ef6106ea826106ca565b6106d4565b82525050565b6000610700826106a7565b915061070c82846106de565b60208201915081905092915050565b610724816106ca565b82525050565b600060ff82169050919050565b6107408161072a565b82525050565b600060808201905061075b600083018761071b565b6107686020830186610737565b610775604083018561071b565b610782606083018461071b565b95945050505050565b600082825260208201905092915050565b7f696e76616c6964207369676e6174757265206c656e6774680000000000000000600082015250565b60006107d260188361078b565b91506107dd8261079c565b602082019050919050565b60006020820190508181036000830152610801816107c5565b905091905056fea26469706673582212203a9bce5322093facc7a9592183dd2fad364b763cfa24af267ef81e1fb02994d164736f6c63430008090033",
  "linkReferences": {},
  "deployedLinkReferences": {}
}