{
  "_format": "hh-sol-artifact-1",
  "contractName": "RoomLabNFT",
  "sourceName": "contracts/RoomLab.sol",
  "abi": [
    {
      "inputs": [],
      "stateMutability": "nonpayable",
      "type": "constructor"
    },
    {
      "anonymous": false,
      "inputs": [
        {
          "indexed": true,
          "internalType": "address",
          "name": "owner",
          "type": "address"
        },
        {
          "indexed": true,
          "internalType": "address",
          "name": "approved",
          "type": "address"
        },
        {
          "indexed": true,
          "internalType": "uint256",
          "name": "tokenId",
          "type": "uint256"
        }
      ],
      "name": "Approval",
      "type": "event"
    },
    {
      "anonymous": false,
      "inputs": [
        {
          "indexed": true,
          "internalType": "address",
          "name": "owner",
          "type": "address"
        },
        {
          "indexed": true,
          "internalType": "address",
          "name": "operator",
          "type": "address"
        },
        {
          "indexed": false,
          "internalType": "bool",
          "name": "approved",
          "type": "bool"
        }
      ],
      "name": "ApprovalForAll",
      "type": "event"
    },
    {
      "anonymous": false,
      "inputs": [
        {
          "indexed": true,
          "internalType": "address",
          "name": "previousOwner",
          "type": "address"
        },
        {
          "indexed": true,
          "internalType": "address",
          "name": "newOwner",
          "type": "address"
        }
      ],
      "name": "OwnershipTransferred",
      "type": "event"
    },
    {
      "anonymous": false,
      "inputs": [
        {
          "indexed": true,
          "internalType": "address",
          "name": "from",
          "type": "address"
        },
        {
          "indexed": true,
          "internalType": "address",
          "name": "to",
          "type": "address"
        },
        {
          "indexed": true,
          "internalType": "uint256",
          "name": "tokenId",
          "type": "uint256"
        }
      ],
      "name": "Transfer",
      "type": "event"
    },
    {
      "inputs": [
        {
          "internalType": "address",
          "name": "to",
          "type": "address"
        },
        {
          "internalType": "uint256",
          "name": "tokenId",
          "type": "uint256"
        }
      ],
      "name": "approve",
      "outputs": [],
      "stateMutability": "nonpayable",
      "type": "function"
    },
    {
      "inputs": [
        {
          "internalType": "address",
          "name": "owner",
          "type": "address"
        }
      ],
      "name": "balanceOf",
      "outputs": [
        {
          "internalType": "uint256",
          "name": "",
          "type": "uint256"
        }
      ],
      "stateMutability": "view",
      "type": "function"
    },
    {
      "inputs": [],
      "name": "baseURI",
      "outputs": [
        {
          "internalType": "string",
          "name": "",
          "type": "string"
        }
      ],
      "stateMutability": "view",
      "type": "function"
    },
    {
      "inputs": [
        {
          "internalType": "uint256",
          "name": "tokenId",
          "type": "uint256"
        }
      ],
      "name": "getApproved",
      "outputs": [
        {
          "internalType": "address",
          "name": "",
          "type": "address"
        }
      ],
      "stateMutability": "view",
      "type": "function"
    },
    {
      "inputs": [
        {
          "internalType": "address",
          "name": "_account",
          "type": "address"
        },
        {
          "internalType": "uint256",
          "name": "_quantity",
          "type": "uint256"
        }
      ],
      "name": "gift",
      "outputs": [],
      "stateMutability": "nonpayable",
      "type": "function"
    },
    {
      "inputs": [
        {
          "internalType": "address",
          "name": "owner",
          "type": "address"
        },
        {
          "internalType": "address",
          "name": "operator",
          "type": "address"
        }
      ],
      "name": "isApprovedForAll",
      "outputs": [
        {
          "internalType": "bool",
          "name": "",
          "type": "bool"
        }
      ],
      "stateMutability": "view",
      "type": "function"
    },
    {
      "inputs": [
        {
          "internalType": "address",
          "name": "_account",
          "type": "address"
        }
      ],
      "name": "listTokenIdbyAddress",
      "outputs": [
        {
          "internalType": "uint256[]",
          "name": "",
          "type": "uint256[]"
        }
      ],
      "stateMutability": "view",
      "type": "function"
    },
    {
      "inputs": [
        {
          "internalType": "uint256",
          "name": "_quantity",
          "type": "uint256"
        }
      ],
      "name": "mint",
      "outputs": [],
      "stateMutability": "payable",
      "type": "function"
    },
    {
      "inputs": [],
      "name": "name",
      "outputs": [
        {
          "internalType": "string",
          "name": "",
          "type": "string"
        }
      ],
      "stateMutability": "view",
      "type": "function"
    },
    {
      "inputs": [],
      "name": "owner",
      "outputs": [
        {
          "internalType": "address",
          "name": "",
          "type": "address"
        }
      ],
      "stateMutability": "view",
      "type": "function"
    },
    {
      "inputs": [
        {
          "internalType": "uint256",
          "name": "tokenId",
          "type": "uint256"
        }
      ],
      "name": "ownerOf",
      "outputs": [
        {
          "internalType": "address",
          "name": "",
          "type": "address"
        }
      ],
      "stateMutability": "view",
      "type": "function"
    },
    {
      "inputs": [],
      "name": "renounceOwnership",
      "outputs": [],
      "stateMutability": "nonpayable",
      "type": "function"
    },
    {
      "inputs": [
        {
          "internalType": "address",
          "name": "from",
          "type": "address"
        },
        {
          "internalType": "address",
          "name": "to",
          "type": "address"
        },
        {
          "internalType": "uint256",
          "name": "tokenId",
          "type": "uint256"
        }
      ],
      "name": "safeTransferFrom",
      "outputs": [],
      "stateMutability": "nonpayable",
      "type": "function"
    },
    {
      "inputs": [
        {
          "internalType": "address",
          "name": "from",
          "type": "address"
        },
        {
          "internalType": "address",
          "name": "to",
          "type": "address"
        },
        {
          "internalType": "uint256",
          "name": "tokenId",
          "type": "uint256"
        },
        {
          "internalType": "bytes",
          "name": "data",
          "type": "bytes"
        }
      ],
      "name": "safeTransferFrom",
      "outputs": [],
      "stateMutability": "nonpayable",
      "type": "function"
    },
    {
      "inputs": [],
      "name": "saleStartTime",
      "outputs": [
        {
          "internalType": "uint32",
          "name": "",
          "type": "uint32"
        }
      ],
      "stateMutability": "view",
      "type": "function"
    },
    {
      "inputs": [
        {
          "internalType": "address",
          "name": "operator",
          "type": "address"
        },
        {
          "internalType": "bool",
          "name": "approved",
          "type": "bool"
        }
      ],
      "name": "setApprovalForAll",
      "outputs": [],
      "stateMutability": "nonpayable",
      "type": "function"
    },
    {
      "inputs": [
        {
          "internalType": "string",
          "name": "_baseUri",
          "type": "string"
        }
      ],
      "name": "setBaseURI",
      "outputs": [],
      "stateMutability": "nonpayable",
      "type": "function"
    },
    {
      "inputs": [
        {
          "internalType": "uint32",
          "name": "_saleStartTime",
          "type": "uint32"
        }
      ],
      "name": "setSaleStartTime",
      "outputs": [],
      "stateMutability": "nonpayable",
      "type": "function"
    },
    {
      "inputs": [
        {
          "internalType": "bytes4",
          "name": "interfaceId",
          "type": "bytes4"
        }
      ],
      "name": "supportsInterface",
      "outputs": [
        {
          "internalType": "bool",
          "name": "",
          "type": "bool"
        }
      ],
      "stateMutability": "view",
      "type": "function"
    },
    {
      "inputs": [],
      "name": "symbol",
      "outputs": [
        {
          "internalType": "string",
          "name": "",
          "type": "string"
        }
      ],
      "stateMutability": "view",
      "type": "function"
    },
    {
      "inputs": [
        {
          "internalType": "uint256",
          "name": "index",
          "type": "uint256"
        }
      ],
      "name": "tokenByIndex",
      "outputs": [
        {
          "internalType": "uint256",
          "name": "",
          "type": "uint256"
        }
      ],
      "stateMutability": "view",
      "type": "function"
    },
    {
      "inputs": [
        {
          "internalType": "address",
          "name": "owner",
          "type": "address"
        },
        {
          "internalType": "uint256",
          "name": "index",
          "type": "uint256"
        }
      ],
      "name": "tokenOfOwnerByIndex",
      "outputs": [
        {
          "internalType": "uint256",
          "name": "",
          "type": "uint256"
        }
      ],
      "stateMutability": "view",
      "type": "function"
    },
    {
      "inputs": [
        {
          "internalType": "uint256",
          "name": "_tokenId",
          "type": "uint256"
        }
      ],
      "name": "tokenURI",
      "outputs": [
        {
          "internalType": "string",
          "name": "",
          "type": "string"
        }
      ],
      "stateMutability": "view",
      "type": "function"
    },
    {
      "inputs": [],
      "name": "totalSupply",
      "outputs": [
        {
          "internalType": "uint256",
          "name": "",
          "type": "uint256"
        }
      ],
      "stateMutability": "view",
      "type": "function"
    },
    {
      "inputs": [
        {
          "internalType": "address",
          "name": "from",
          "type": "address"
        },
        {
          "internalType": "address",
          "name": "to",
          "type": "address"
        },
        {
          "internalType": "uint256",
          "name": "tokenId",
          "type": "uint256"
        }
      ],
      "name": "transferFrom",
      "outputs": [],
      "stateMutability": "nonpayable",
      "type": "function"
    },
    {
      "inputs": [
        {
          "internalType": "address",
          "name": "newOwner",
          "type": "address"
        }
      ],
      "name": "transferOwnership",
      "outputs": [],
      "stateMutability": "nonpayable",
      "type": "function"
    },
    {
      "inputs": [
        {
          "internalType": "address",
          "name": "_signer",
          "type": "address"
        },
        {
          "internalType": "string",
          "name": "_message",
          "type": "string"
        },
        {
          "internalType": "uint256",
          "name": "_nonce",
          "type": "uint256"
        },
        {
          "internalType": "bytes",
          "name": "signature",
          "type": "bytes"
        }
      ],
      "name": "verify",
      "outputs": [
        {
          "internalType": "bool",
          "name": "",
          "type": "bool"
        }
      ],
      "stateMutability": "pure",
      "type": "function"
    },
    {
      "inputs": [],
      "name": "withdraw",
      "outputs": [],
      "stateMutability": "payable",
      "type": "function"
    }
  ],
  "bytecode": "0x608060405263645df908600c60006101000a81548163ffffffff021916908363ffffffff1602179055503480156200003657600080fd5b506040518060400160405280600881526020017f726f6f6d206c61620000000000000000000000000000000000000000000000008152506040518060400160405280600481526020017f524c4142000000000000000000000000000000000000000000000000000000008152508160009080519060200190620000bb929190620001cb565b508060019080519060200190620000d4929190620001cb565b505050620000f7620000eb620000fd60201b60201c565b6200010560201b60201c565b620002e0565b600033905090565b6000600a60009054906101000a900473ffffffffffffffffffffffffffffffffffffffff16905081600a60006101000a81548173ffffffffffffffffffffffffffffffffffffffff021916908373ffffffffffffffffffffffffffffffffffffffff1602179055508173ffffffffffffffffffffffffffffffffffffffff168173ffffffffffffffffffffffffffffffffffffffff167f8be0079c531659141344cd1fd0a4f28419497f9722a3daafe3b4186f6b6457e060405160405180910390a35050565b828054620001d990620002aa565b90600052602060002090601f016020900481019282620001fd576000855562000249565b82601f106200021857805160ff191683800117855562000249565b8280016001018555821562000249579182015b82811115620002485782518255916020019190600101906200022b565b5b5090506200025891906200025c565b5090565b5b80821115620002775760008160009055506001016200025d565b5090565b7f4e487b7100000000000000000000000000000000000000000000000000000000600052602260045260246000fd5b60006002820490506001821680620002c357607f821691505b60208210811415620002da57620002d96200027b565b5b50919050565b61475580620002f06000396000f3fe6080604052600436106101b75760003560e01c80635d692f4e116100ec578063a0712d681161008a578063c87b56dd11610064578063c87b56dd14610602578063cbce4c971461063f578063e985e9c514610668578063f2fde38b146106a5576101b7565b8063a0712d6814610594578063a22cb465146105b0578063b88d4fde146105d9576101b7565b806370a08231116100c657806370a08231146104ea578063715018a6146105275780638da5cb5b1461053e57806395d89b4114610569576101b7565b80635d692f4e146104455780636352211e146104825780636c0360eb146104bf576101b7565b80631cbaee2d116101595780633ccfd60b116101335780633ccfd60b146103ac57806342842e0e146103b65780634f6ccce7146103df57806355f804b31461041c576101b7565b80631cbaee2d1461031b57806323b872dd146103465780632f745c591461036f576101b7565b806307546f1a1161019557806307546f1a1461024d578063081812fc1461028a578063095ea7b3146102c757806318160ddd146102f0576101b7565b806301595266146101bc57806301ffc9a7146101e557806306fdde0314610222575b600080fd5b3480156101c857600080fd5b506101e360048036038101906101de9190612c96565b6106ce565b005b3480156101f157600080fd5b5061020c60048036038101906102079190612d1b565b6106fa565b6040516102199190612d63565b60405180910390f35b34801561022e57600080fd5b5061023761070c565b6040516102449190612e17565b60405180910390f35b34801561025957600080fd5b50610274600480360381019061026f91906130a3565b61079e565b6040516102819190612d63565b60405180910390f35b34801561029657600080fd5b506102b160048036038101906102ac9190613142565b6107ff565b6040516102be919061317e565b60405180910390f35b3480156102d357600080fd5b506102ee60048036038101906102e99190613199565b610845565b005b3480156102fc57600080fd5b5061030561095d565b60405161031291906131e8565b60405180910390f35b34801561032757600080fd5b5061033061096a565b60405161033d9190613212565b60405180910390f35b34801561035257600080fd5b5061036d6004803603810190610368919061322d565b610980565b005b34801561037b57600080fd5b5061039660048036038101906103919190613199565b6109e0565b6040516103a391906131e8565b60405180910390f35b6103b4610a85565b005b3480156103c257600080fd5b506103dd60048036038101906103d8919061322d565b610bb0565b005b3480156103eb57600080fd5b5061040660048036038101906104019190613142565b610bd0565b60405161041391906131e8565b60405180910390f35b34801561042857600080fd5b50610443600480360381019061043e9190613280565b610c41565b005b34801561045157600080fd5b5061046c600480360381019061046791906132c9565b610c63565b60405161047991906133b4565b60405180910390f35b34801561048e57600080fd5b506104a960048036038101906104a49190613142565b610d11565b6040516104b6919061317e565b60405180910390f35b3480156104cb57600080fd5b506104d4610d98565b6040516104e19190612e17565b60405180910390f35b3480156104f657600080fd5b50610511600480360381019061050c91906132c9565b610e26565b60405161051e91906131e8565b60405180910390f35b34801561053357600080fd5b5061053c610ede565b005b34801561054a57600080fd5b50610553610ef2565b604051610560919061317e565b60405180910390f35b34801561057557600080fd5b5061057e610f1c565b60405161058b9190612e17565b60405180910390f35b6105ae60048036038101906105a99190613142565b610fae565b005b3480156105bc57600080fd5b506105d760048036038101906105d29190613402565b611211565b005b3480156105e557600080fd5b5061060060048036038101906105fb9190613442565b611227565b005b34801561060e57600080fd5b5061062960048036038101906106249190613142565b611289565b6040516106369190612e17565b60405180910390f35b34801561064b57600080fd5b5061066660048036038101906106619190613199565b611305565b005b34801561067457600080fd5b5061068f600480360381019061068a91906134c5565b6113b9565b60405161069c9190612d63565b60405180910390f35b3480156106b157600080fd5b506106cc60048036038101906106c791906132c9565b61144d565b005b6106d66114d1565b80600c60006101000a81548163ffffffff021916908363ffffffff16021790555050565b60006107058261154f565b9050919050565b60606000805461071b90613534565b80601f016020809104026020016040519081016040528092919081815260200182805461074790613534565b80156107945780601f1061076957610100808354040283529160200191610794565b820191906000526020600020905b81548152906001019060200180831161077757829003601f168201915b5050505050905090565b6000806107ac8686866115c9565b905060006107b9826115ff565b90508673ffffffffffffffffffffffffffffffffffffffff166107dc828661162f565b73ffffffffffffffffffffffffffffffffffffffff161492505050949350505050565b600061080a8261169e565b6004600083815260200190815260200160002060009054906101000a900473ffffffffffffffffffffffffffffffffffffffff169050919050565b600061085082610d11565b90508073ffffffffffffffffffffffffffffffffffffffff168373ffffffffffffffffffffffffffffffffffffffff1614156108c1576040517f08c379a00000000000000000000000000000000000000000000000000000000081526004016108b8906135d8565b60405180910390fd5b8073ffffffffffffffffffffffffffffffffffffffff166108e06116e9565b73ffffffffffffffffffffffffffffffffffffffff16148061090f575061090e816109096116e9565b6113b9565b5b61094e576040517f08c379a00000000000000000000000000000000000000000000000000000000081526004016109459061366a565b60405180910390fd5b61095883836116f1565b505050565b6000600880549050905090565b600c60009054906101000a900463ffffffff1681565b61099161098b6116e9565b826117aa565b6109d0576040517f08c379a00000000000000000000000000000000000000000000000000000000081526004016109c7906136fc565b60405180910390fd5b6109db83838361183f565b505050565b60006109eb83610e26565b8210610a2c576040517f08c379a0000000000000000000000000000000000000000000000000000000008152600401610a239061378e565b60405180910390fd5b600660008473ffffffffffffffffffffffffffffffffffffffff1673ffffffffffffffffffffffffffffffffffffffff168152602001908152602001600020600083815260200190815260200160002054905092915050565b610a8d6114d1565b600073e79b2cc4c07db560f8e1ee63ed407dd2dcfde80e73ffffffffffffffffffffffffffffffffffffffff166064600347610ac991906137dd565b610ad39190613866565b604051610adf906138c8565b60006040518083038185875af1925050503d8060008114610b1c576040519150601f19603f3d011682016040523d82523d6000602084013e610b21565b606091505b5050905080610b2f57600080fd5b6000610b39610ef2565b73ffffffffffffffffffffffffffffffffffffffff1647604051610b5c906138c8565b60006040518083038185875af1925050503d8060008114610b99576040519150601f19603f3d011682016040523d82523d6000602084013e610b9e565b606091505b5050905080610bac57600080fd5b5050565b610bcb83838360405180602001604052806000815250611227565b505050565b6000610bda61095d565b8210610c1b576040517f08c379a0000000000000000000000000000000000000000000000000000000008152600401610c129061394f565b60405180910390fd5b60088281548110610c2f57610c2e61396f565b5b90600052602060002001549050919050565b610c496114d1565b80600b9080519060200190610c5f929190612ba3565b5050565b60606000610c7083610e26565b905060008167ffffffffffffffff811115610c8e57610c8d612ea1565b5b604051908082528060200260200182016040528015610cbc5781602001602082028036833780820191505090505b50905060005b82811015610d0657610cd485826109e0565b828281518110610ce757610ce661396f565b5b6020026020010181815250508080610cfe9061399e565b915050610cc2565b508092505050919050565b600080610d1d83611b39565b9050600073ffffffffffffffffffffffffffffffffffffffff168173ffffffffffffffffffffffffffffffffffffffff161415610d8f576040517f08c379a0000000000000000000000000000000000000000000000000000000008152600401610d8690613a33565b60405180910390fd5b80915050919050565b600b8054610da590613534565b80601f0160208091040260200160405190810160405280929190818152602001828054610dd190613534565b8015610e1e5780601f10610df357610100808354040283529160200191610e1e565b820191906000526020600020905b815481529060010190602001808311610e0157829003601f168201915b505050505081565b60008073ffffffffffffffffffffffffffffffffffffffff168273ffffffffffffffffffffffffffffffffffffffff161415610e97576040517f08c379a0000000000000000000000000000000000000000000000000000000008152600401610e8e90613ac5565b60405180910390fd5b600360008373ffffffffffffffffffffffffffffffffffffffff1673ffffffffffffffffffffffffffffffffffffffff168152602001908152602001600020549050919050565b610ee66114d1565b610ef06000611b76565b565b6000600a60009054906101000a900473ffffffffffffffffffffffffffffffffffffffff16905090565b606060018054610f2b90613534565b80601f0160208091040260200160405190810160405280929190818152602001828054610f5790613534565b8015610fa45780601f10610f7957610100808354040283529160200191610fa4565b820191906000526020600020905b815481529060010190602001808311610f8757829003601f168201915b5050505050905090565b600c60009054906101000a900463ffffffff1663ffffffff16610fcf611c3c565b1015611010576040517f08c379a000000000000000000000000000000000000000000000000000000000815260040161100790613b31565b60405180910390fd5b600381600d60003373ffffffffffffffffffffffffffffffffffffffff1673ffffffffffffffffffffffffffffffffffffffff1681526020019081526020016000205461105d9190613b51565b111561109e576040517f08c379a000000000000000000000000000000000000000000000000000000000815260040161109590613c19565b60405180910390fd5b61012c816110aa61095d565b6110b49190613b51565b11156110f5576040517f08c379a00000000000000000000000000000000000000000000000000000000081526004016110ec90613c85565b60405180910390fd5b8067016345785d8a000061110991906137dd565b34101561114b576040517f08c379a000000000000000000000000000000000000000000000000000000000815260040161114290613cf1565b60405180910390fd5b80600d60003373ffffffffffffffffffffffffffffffffffffffff1673ffffffffffffffffffffffffffffffffffffffff168152602001908152602001600020600082825461119a9190613b51565b925050819055506000600190505b8181116111f15761012c6111ba61095d565b10156111de576111dd3360016111ce61095d565b6111d89190613b51565b611c44565b5b80806111e99061399e565b9150506111a8565b5061120e8167016345785d8a000061120991906137dd565b611c62565b50565b61122361121c6116e9565b8383611d03565b5050565b6112386112326116e9565b836117aa565b611277576040517f08c379a000000000000000000000000000000000000000000000000000000000815260040161126e906136fc565b60405180910390fd5b61128384848484611e70565b50505050565b606061129482611ecc565b6112d3576040517f08c379a00000000000000000000000000000000000000000000000000000000081526004016112ca90613d5d565b60405180910390fd5b600b6112de83611f0d565b6040516020016112ef929190613e99565b6040516020818303038152906040529050919050565b61130d6114d1565b61012c8161131961095d565b6113239190613b51565b1115611364576040517f08c379a000000000000000000000000000000000000000000000000000000000815260040161135b90613c85565b60405180910390fd5b6000600190505b8181116113b45761012c61137d61095d565b10156113a1576113a083600161139161095d565b61139b9190613b51565b611c44565b5b80806113ac9061399e565b91505061136b565b505050565b6000600560008473ffffffffffffffffffffffffffffffffffffffff1673ffffffffffffffffffffffffffffffffffffffff16815260200190815260200160002060008373ffffffffffffffffffffffffffffffffffffffff1673ffffffffffffffffffffffffffffffffffffffff16815260200190815260200160002060009054906101000a900460ff16905092915050565b6114556114d1565b600073ffffffffffffffffffffffffffffffffffffffff168173ffffffffffffffffffffffffffffffffffffffff1614156114c5576040517f08c379a00000000000000000000000000000000000000000000000000000000081526004016114bc90613f3a565b60405180910390fd5b6114ce81611b76565b50565b6114d96116e9565b73ffffffffffffffffffffffffffffffffffffffff166114f7610ef2565b73ffffffffffffffffffffffffffffffffffffffff161461154d576040517f08c379a000000000000000000000000000000000000000000000000000000000815260040161154490613fa6565b60405180910390fd5b565b60007f780e9d63000000000000000000000000000000000000000000000000000000007bffffffffffffffffffffffffffffffffffffffffffffffffffffffff1916827bffffffffffffffffffffffffffffffffffffffffffffffffffffffff191614806115c257506115c182611fe5565b5b9050919050565b60008383836040516020016115e09392919061402f565b6040516020818303038152906040528051906020012090509392505050565b60008160405160200161161291906140df565b604051602081830303815290604052805190602001209050919050565b60008060008061163e856120c7565b925092509250600186828585604051600081526020016040526040516116679493929190614130565b6020604051602081039080840390855afa158015611689573d6000803e3d6000fd5b50505060206040510351935050505092915050565b6116a781611ecc565b6116e6576040517f08c379a00000000000000000000000000000000000000000000000000000000081526004016116dd90613a33565b60405180910390fd5b50565b600033905090565b816004600083815260200190815260200160002060006101000a81548173ffffffffffffffffffffffffffffffffffffffff021916908373ffffffffffffffffffffffffffffffffffffffff160217905550808273ffffffffffffffffffffffffffffffffffffffff1661176483610d11565b73ffffffffffffffffffffffffffffffffffffffff167f8c5be1e5ebec7d5bd14f71427d1e84f3dd0314c0f7b2291e5b200ac8c7c3b92560405160405180910390a45050565b6000806117b683610d11565b90508073ffffffffffffffffffffffffffffffffffffffff168473ffffffffffffffffffffffffffffffffffffffff1614806117f857506117f781856113b9565b5b8061183657508373ffffffffffffffffffffffffffffffffffffffff1661181e846107ff565b73ffffffffffffffffffffffffffffffffffffffff16145b91505092915050565b8273ffffffffffffffffffffffffffffffffffffffff1661185f82610d11565b73ffffffffffffffffffffffffffffffffffffffff16146118b5576040517f08c379a00000000000000000000000000000000000000000000000000000000081526004016118ac906141e7565b60405180910390fd5b600073ffffffffffffffffffffffffffffffffffffffff168273ffffffffffffffffffffffffffffffffffffffff161415611925576040517f08c379a000000000000000000000000000000000000000000000000000000000815260040161191c90614279565b60405180910390fd5b611932838383600161212f565b8273ffffffffffffffffffffffffffffffffffffffff1661195282610d11565b73ffffffffffffffffffffffffffffffffffffffff16146119a8576040517f08c379a000000000000000000000000000000000000000000000000000000000815260040161199f906141e7565b60405180910390fd5b6004600082815260200190815260200160002060006101000a81549073ffffffffffffffffffffffffffffffffffffffff02191690556001600360008573ffffffffffffffffffffffffffffffffffffffff1673ffffffffffffffffffffffffffffffffffffffff168152602001908152602001600020600082825403925050819055506001600360008473ffffffffffffffffffffffffffffffffffffffff1673ffffffffffffffffffffffffffffffffffffffff16815260200190815260200160002060008282540192505081905550816002600083815260200190815260200160002060006101000a81548173ffffffffffffffffffffffffffffffffffffffff021916908373ffffffffffffffffffffffffffffffffffffffff160217905550808273ffffffffffffffffffffffffffffffffffffffff168473ffffffffffffffffffffffffffffffffffffffff167fddf252ad1be2c89b69c2b068fc378daa952ba7f163c4a11628f55a4df523b3ef60405160405180910390a4611b348383836001612141565b505050565b60006002600083815260200190815260200160002060009054906101000a900473ffffffffffffffffffffffffffffffffffffffff169050919050565b6000600a60009054906101000a900473ffffffffffffffffffffffffffffffffffffffff16905081600a60006101000a81548173ffffffffffffffffffffffffffffffffffffffff021916908373ffffffffffffffffffffffffffffffffffffffff1602179055508173ffffffffffffffffffffffffffffffffffffffff168173ffffffffffffffffffffffffffffffffffffffff167f8be0079c531659141344cd1fd0a4f28419497f9722a3daafe3b4186f6b6457e060405160405180910390a35050565b600042905090565b611c5e828260405180602001604052806000815250612147565b5050565b80341015611ca5576040517f08c379a0000000000000000000000000000000000000000000000000000000008152600401611c9c906142e5565b60405180910390fd5b80341115611d00573373ffffffffffffffffffffffffffffffffffffffff166108fc8234611cd39190614305565b9081150290604051600060405180830381858888f19350505050158015611cfe573d6000803e3d6000fd5b505b50565b8173ffffffffffffffffffffffffffffffffffffffff168373ffffffffffffffffffffffffffffffffffffffff161415611d72576040517f08c379a0000000000000000000000000000000000000000000000000000000008152600401611d6990614385565b60405180910390fd5b80600560008573ffffffffffffffffffffffffffffffffffffffff1673ffffffffffffffffffffffffffffffffffffffff16815260200190815260200160002060008473ffffffffffffffffffffffffffffffffffffffff1673ffffffffffffffffffffffffffffffffffffffff16815260200190815260200160002060006101000a81548160ff0219169083151502179055508173ffffffffffffffffffffffffffffffffffffffff168373ffffffffffffffffffffffffffffffffffffffff167f17307eab39ab6107e8899845ad3d59bd9653f200f220920489ca2b5937696c3183604051611e639190612d63565b60405180910390a3505050565b611e7b84848461183f565b611e87848484846121a2565b611ec6576040517f08c379a0000000000000000000000000000000000000000000000000000000008152600401611ebd90614417565b60405180910390fd5b50505050565b60008073ffffffffffffffffffffffffffffffffffffffff16611eee83611b39565b73ffffffffffffffffffffffffffffffffffffffff1614159050919050565b606060006001611f1c84612339565b01905060008167ffffffffffffffff811115611f3b57611f3a612ea1565b5b6040519080825280601f01601f191660200182016040528015611f6d5781602001600182028036833780820191505090505b509050600082602001820190505b600115611fda578080600190039150507f3031323334353637383961626364656600000000000000000000000000000000600a86061a8153600a8581611fc457611fc3613837565b5b0494506000851415611fd557611fda565b611f7b565b819350505050919050565b60007f80ac58cd000000000000000000000000000000000000000000000000000000007bffffffffffffffffffffffffffffffffffffffffffffffffffffffff1916827bffffffffffffffffffffffffffffffffffffffffffffffffffffffff191614806120b057507f5b5e139f000000000000000000000000000000000000000000000000000000007bffffffffffffffffffffffffffffffffffffffffffffffffffffffff1916827bffffffffffffffffffffffffffffffffffffffffffffffffffffffff1916145b806120c057506120bf8261248c565b5b9050919050565b60008060006041845114612110576040517f08c379a000000000000000000000000000000000000000000000000000000000815260040161210790614483565b60405180910390fd5b6020840151925060408401519150606084015160001a90509193909250565b61213b848484846124f6565b50505050565b50505050565b6121518383612656565b61215e60008484846121a2565b61219d576040517f08c379a000000000000000000000000000000000000000000000000000000000815260040161219490614417565b60405180910390fd5b505050565b60006121c38473ffffffffffffffffffffffffffffffffffffffff16612874565b1561232c578373ffffffffffffffffffffffffffffffffffffffff1663150b7a026121ec6116e9565b8786866040518563ffffffff1660e01b815260040161220e94939291906144f8565b602060405180830381600087803b15801561222857600080fd5b505af192505050801561225957506040513d601f19601f820116820180604052508101906122569190614559565b60015b6122dc573d8060008114612289576040519150601f19603f3d011682016040523d82523d6000602084013e61228e565b606091505b506000815114156122d4576040517f08c379a00000000000000000000000000000000000000000000000000000000081526004016122cb90614417565b60405180910390fd5b805181602001fd5b63150b7a0260e01b7bffffffffffffffffffffffffffffffffffffffffffffffffffffffff1916817bffffffffffffffffffffffffffffffffffffffffffffffffffffffff191614915050612331565b600190505b949350505050565b600080600090507a184f03e93ff9f4daa797ed6e38ed64bf6a1f0100000000000000008310612397577a184f03e93ff9f4daa797ed6e38ed64bf6a1f010000000000000000838161238d5761238c613837565b5b0492506040810190505b6d04ee2d6d415b85acef810000000083106123d4576d04ee2d6d415b85acef810000000083816123ca576123c9613837565b5b0492506020810190505b662386f26fc10000831061240357662386f26fc1000083816123f9576123f8613837565b5b0492506010810190505b6305f5e100831061242c576305f5e100838161242257612421613837565b5b0492506008810190505b612710831061245157612710838161244757612446613837565b5b0492506004810190505b60648310612474576064838161246a57612469613837565b5b0492506002810190505b600a8310612483576001810190505b80915050919050565b60007f01ffc9a7000000000000000000000000000000000000000000000000000000007bffffffffffffffffffffffffffffffffffffffffffffffffffffffff1916827bffffffffffffffffffffffffffffffffffffffffffffffffffffffff1916149050919050565b61250284848484612897565b6001811115612546576040517f08c379a000000000000000000000000000000000000000000000000000000000815260040161253d906145f8565b60405180910390fd5b6000829050600073ffffffffffffffffffffffffffffffffffffffff168573ffffffffffffffffffffffffffffffffffffffff16141561258e576125898161289d565b6125cd565b8373ffffffffffffffffffffffffffffffffffffffff168573ffffffffffffffffffffffffffffffffffffffff16146125cc576125cb85826128e6565b5b5b600073ffffffffffffffffffffffffffffffffffffffff168473ffffffffffffffffffffffffffffffffffffffff1614156126105761260b81612a53565b61264f565b8473ffffffffffffffffffffffffffffffffffffffff168473ffffffffffffffffffffffffffffffffffffffff161461264e5761264d8482612b24565b5b5b5050505050565b600073ffffffffffffffffffffffffffffffffffffffff168273ffffffffffffffffffffffffffffffffffffffff1614156126c6576040517f08c379a00000000000000000000000000000000000000000000000000000000081526004016126bd90614664565b60405180910390fd5b6126cf81611ecc565b1561270f576040517f08c379a0000000000000000000000000000000000000000000000000000000008152600401612706906146d0565b60405180910390fd5b61271d60008383600161212f565b61272681611ecc565b15612766576040517f08c379a000000000000000000000000000000000000000000000000000000000815260040161275d906146d0565b60405180910390fd5b6001600360008473ffffffffffffffffffffffffffffffffffffffff1673ffffffffffffffffffffffffffffffffffffffff16815260200190815260200160002060008282540192505081905550816002600083815260200190815260200160002060006101000a81548173ffffffffffffffffffffffffffffffffffffffff021916908373ffffffffffffffffffffffffffffffffffffffff160217905550808273ffffffffffffffffffffffffffffffffffffffff16600073ffffffffffffffffffffffffffffffffffffffff167fddf252ad1be2c89b69c2b068fc378daa952ba7f163c4a11628f55a4df523b3ef60405160405180910390a4612870600083836001612141565b5050565b6000808273ffffffffffffffffffffffffffffffffffffffff163b119050919050565b50505050565b6008805490506009600083815260200190815260200160002081905550600881908060018154018082558091505060019003906000526020600020016000909190919091505550565b600060016128f384610e26565b6128fd9190614305565b90506000600760008481526020019081526020016000205490508181146129e2576000600660008673ffffffffffffffffffffffffffffffffffffffff1673ffffffffffffffffffffffffffffffffffffffff168152602001908152602001600020600084815260200190815260200160002054905080600660008773ffffffffffffffffffffffffffffffffffffffff1673ffffffffffffffffffffffffffffffffffffffff168152602001908152602001600020600084815260200190815260200160002081905550816007600083815260200190815260200160002081905550505b6007600084815260200190815260200160002060009055600660008573ffffffffffffffffffffffffffffffffffffffff1673ffffffffffffffffffffffffffffffffffffffff16815260200190815260200160002060008381526020019081526020016000206000905550505050565b60006001600880549050612a679190614305565b9050600060096000848152602001908152602001600020549050600060088381548110612a9757612a9661396f565b5b906000526020600020015490508060088381548110612ab957612ab861396f565b5b906000526020600020018190555081600960008381526020019081526020016000208190555060096000858152602001908152602001600020600090556008805480612b0857612b076146f0565b5b6001900381819060005260206000200160009055905550505050565b6000612b2f83610e26565b905081600660008573ffffffffffffffffffffffffffffffffffffffff1673ffffffffffffffffffffffffffffffffffffffff168152602001908152602001600020600083815260200190815260200160002081905550806007600084815260200190815260200160002081905550505050565b828054612baf90613534565b90600052602060002090601f016020900481019282612bd15760008555612c18565b82601f10612bea57805160ff1916838001178555612c18565b82800160010185558215612c18579182015b82811115612c17578251825591602001919060010190612bfc565b5b509050612c259190612c29565b5090565b5b80821115612c42576000816000905550600101612c2a565b5090565b6000604051905090565b600080fd5b600080fd5b600063ffffffff82169050919050565b612c7381612c5a565b8114612c7e57600080fd5b50565b600081359050612c9081612c6a565b92915050565b600060208284031215612cac57612cab612c50565b5b6000612cba84828501612c81565b91505092915050565b60007fffffffff0000000000000000000000000000000000000000000000000000000082169050919050565b612cf881612cc3565b8114612d0357600080fd5b50565b600081359050612d1581612cef565b92915050565b600060208284031215612d3157612d30612c50565b5b6000612d3f84828501612d06565b91505092915050565b60008115159050919050565b612d5d81612d48565b82525050565b6000602082019050612d786000830184612d54565b92915050565b600081519050919050565b600082825260208201905092915050565b60005b83811015612db8578082015181840152602081019050612d9d565b83811115612dc7576000848401525b50505050565b6000601f19601f8301169050919050565b6000612de982612d7e565b612df38185612d89565b9350612e03818560208601612d9a565b612e0c81612dcd565b840191505092915050565b60006020820190508181036000830152612e318184612dde565b905092915050565b600073ffffffffffffffffffffffffffffffffffffffff82169050919050565b6000612e6482612e39565b9050919050565b612e7481612e59565b8114612e7f57600080fd5b50565b600081359050612e9181612e6b565b92915050565b600080fd5b600080fd5b7f4e487b7100000000000000000000000000000000000000000000000000000000600052604160045260246000fd5b612ed982612dcd565b810181811067ffffffffffffffff82111715612ef857612ef7612ea1565b5b80604052505050565b6000612f0b612c46565b9050612f178282612ed0565b919050565b600067ffffffffffffffff821115612f3757612f36612ea1565b5b612f4082612dcd565b9050602081019050919050565b82818337600083830152505050565b6000612f6f612f6a84612f1c565b612f01565b905082815260208101848484011115612f8b57612f8a612e9c565b5b612f96848285612f4d565b509392505050565b600082601f830112612fb357612fb2612e97565b5b8135612fc3848260208601612f5c565b91505092915050565b6000819050919050565b612fdf81612fcc565b8114612fea57600080fd5b50565b600081359050612ffc81612fd6565b92915050565b600067ffffffffffffffff82111561301d5761301c612ea1565b5b61302682612dcd565b9050602081019050919050565b600061304661304184613002565b612f01565b90508281526020810184848401111561306257613061612e9c565b5b61306d848285612f4d565b509392505050565b600082601f83011261308a57613089612e97565b5b813561309a848260208601613033565b91505092915050565b600080600080608085870312156130bd576130bc612c50565b5b60006130cb87828801612e82565b945050602085013567ffffffffffffffff8111156130ec576130eb612c55565b5b6130f887828801612f9e565b935050604061310987828801612fed565b925050606085013567ffffffffffffffff81111561312a57613129612c55565b5b61313687828801613075565b91505092959194509250565b60006020828403121561315857613157612c50565b5b600061316684828501612fed565b91505092915050565b61317881612e59565b82525050565b6000602082019050613193600083018461316f565b92915050565b600080604083850312156131b0576131af612c50565b5b60006131be85828601612e82565b92505060206131cf85828601612fed565b9150509250929050565b6131e281612fcc565b82525050565b60006020820190506131fd60008301846131d9565b92915050565b61320c81612c5a565b82525050565b60006020820190506132276000830184613203565b92915050565b60008060006060848603121561324657613245612c50565b5b600061325486828701612e82565b935050602061326586828701612e82565b925050604061327686828701612fed565b9150509250925092565b60006020828403121561329657613295612c50565b5b600082013567ffffffffffffffff8111156132b4576132b3612c55565b5b6132c084828501612f9e565b91505092915050565b6000602082840312156132df576132de612c50565b5b60006132ed84828501612e82565b91505092915050565b600081519050919050565b600082825260208201905092915050565b6000819050602082019050919050565b61332b81612fcc565b82525050565b600061333d8383613322565b60208301905092915050565b6000602082019050919050565b6000613361826132f6565b61336b8185613301565b935061337683613312565b8060005b838110156133a757815161338e8882613331565b975061339983613349565b92505060018101905061337a565b5085935050505092915050565b600060208201905081810360008301526133ce8184613356565b905092915050565b6133df81612d48565b81146133ea57600080fd5b50565b6000813590506133fc816133d6565b92915050565b6000806040838503121561341957613418612c50565b5b600061342785828601612e82565b9250506020613438858286016133ed565b9150509250929050565b6000806000806080858703121561345c5761345b612c50565b5b600061346a87828801612e82565b945050602061347b87828801612e82565b935050604061348c87828801612fed565b925050606085013567ffffffffffffffff8111156134ad576134ac612c55565b5b6134b987828801613075565b91505092959194509250565b600080604083850312156134dc576134db612c50565b5b60006134ea85828601612e82565b92505060206134fb85828601612e82565b9150509250929050565b7f4e487b7100000000000000000000000000000000000000000000000000000000600052602260045260246000fd5b6000600282049050600182168061354c57607f821691505b602082108114156135605761355f613505565b5b50919050565b7f4552433732313a20617070726f76616c20746f2063757272656e74206f776e6560008201527f7200000000000000000000000000000000000000000000000000000000000000602082015250565b60006135c2602183612d89565b91506135cd82613566565b604082019050919050565b600060208201905081810360008301526135f1816135b5565b9050919050565b7f4552433732313a20617070726f76652063616c6c6572206973206e6f7420746f60008201527f6b656e206f776e6572206f7220617070726f76656420666f7220616c6c000000602082015250565b6000613654603d83612d89565b915061365f826135f8565b604082019050919050565b6000602082019050818103600083015261368381613647565b9050919050565b7f4552433732313a2063616c6c6572206973206e6f7420746f6b656e206f776e6560008201527f72206f7220617070726f76656400000000000000000000000000000000000000602082015250565b60006136e6602d83612d89565b91506136f18261368a565b604082019050919050565b60006020820190508181036000830152613715816136d9565b9050919050565b7f455243373231456e756d657261626c653a206f776e657220696e646578206f7560008201527f74206f6620626f756e6473000000000000000000000000000000000000000000602082015250565b6000613778602b83612d89565b91506137838261371c565b604082019050919050565b600060208201905081810360008301526137a78161376b565b9050919050565b7f4e487b7100000000000000000000000000000000000000000000000000000000600052601160045260246000fd5b60006137e882612fcc565b91506137f383612fcc565b9250817fffffffffffffffffffffffffffffffffffffffffffffffffffffffffffffffff048311821515161561382c5761382b6137ae565b5b828202905092915050565b7f4e487b7100000000000000000000000000000000000000000000000000000000600052601260045260246000fd5b600061387182612fcc565b915061387c83612fcc565b92508261388c5761388b613837565b5b828204905092915050565b600081905092915050565b50565b60006138b2600083613897565b91506138bd826138a2565b600082019050919050565b60006138d3826138a5565b9150819050919050565b7f455243373231456e756d657261626c653a20676c6f62616c20696e646578206f60008201527f7574206f6620626f756e64730000000000000000000000000000000000000000602082015250565b6000613939602c83612d89565b9150613944826138dd565b604082019050919050565b600060208201905081810360008301526139688161392c565b9050919050565b7f4e487b7100000000000000000000000000000000000000000000000000000000600052603260045260246000fd5b60006139a982612fcc565b91507fffffffffffffffffffffffffffffffffffffffffffffffffffffffffffffffff8214156139dc576139db6137ae565b5b600182019050919050565b7f4552433732313a20696e76616c696420746f6b656e2049440000000000000000600082015250565b6000613a1d601883612d89565b9150613a28826139e7565b602082019050919050565b60006020820190508181036000830152613a4c81613a10565b9050919050565b7f4552433732313a2061646472657373207a65726f206973206e6f74206120766160008201527f6c6964206f776e65720000000000000000000000000000000000000000000000602082015250565b6000613aaf602983612d89565b9150613aba82613a53565b604082019050919050565b60006020820190508181036000830152613ade81613aa2565b9050919050565b7f43616e6e6f742062757920796574000000000000000000000000000000000000600082015250565b6000613b1b600e83612d89565b9150613b2682613ae5565b602082019050919050565b60006020820190508181036000830152613b4a81613b0e565b9050919050565b6000613b5c82612fcc565b9150613b6783612fcc565b9250827fffffffffffffffffffffffffffffffffffffffffffffffffffffffffffffffff03821115613b9c57613b9b6137ae565b5b828201905092915050565b7f596f752063616e6e6f74206d696e74206d6f7265207468616e2033204e46547360008201527f20647572696e6720746865207075626c69632073616c65000000000000000000602082015250565b6000613c03603783612d89565b9150613c0e82613ba7565b604082019050919050565b60006020820190508181036000830152613c3281613bf6565b9050919050565b7f4d617820737570706c7920657863656564656400000000000000000000000000600082015250565b6000613c6f601383612d89565b9150613c7a82613c39565b602082019050919050565b60006020820190508181036000830152613c9e81613c62565b9050919050565b7f4e6f7420656e6f756768742066756e6473000000000000000000000000000000600082015250565b6000613cdb601183612d89565b9150613ce682613ca5565b602082019050919050565b60006020820190508181036000830152613d0a81613cce565b9050919050565b7f4e4654204e4f54204d494e544544000000000000000000000000000000000000600082015250565b6000613d47600e83612d89565b9150613d5282613d11565b602082019050919050565b60006020820190508181036000830152613d7681613d3a565b9050919050565b600081905092915050565b60008190508160005260206000209050919050565b60008154613daa81613534565b613db48186613d7d565b94506001821660008114613dcf5760018114613de057613e13565b60ff19831686528186019350613e13565b613de985613d88565b60005b83811015613e0b57815481890152600182019150602081019050613dec565b838801955050505b50505092915050565b6000613e2782612d7e565b613e318185613d7d565b9350613e41818560208601612d9a565b80840191505092915050565b7f2e6a736f6e000000000000000000000000000000000000000000000000000000600082015250565b6000613e83600583613d7d565b9150613e8e82613e4d565b600582019050919050565b6000613ea58285613d9d565b9150613eb18284613e1c565b9150613ebc82613e76565b91508190509392505050565b7f4f776e61626c653a206e6577206f776e657220697320746865207a65726f206160008201527f6464726573730000000000000000000000000000000000000000000000000000602082015250565b6000613f24602683612d89565b9150613f2f82613ec8565b604082019050919050565b60006020820190508181036000830152613f5381613f17565b9050919050565b7f4f776e61626c653a2063616c6c6572206973206e6f7420746865206f776e6572600082015250565b6000613f90602083612d89565b9150613f9b82613f5a565b602082019050919050565b60006020820190508181036000830152613fbf81613f83565b9050919050565b60008160601b9050919050565b6000613fde82613fc6565b9050919050565b6000613ff082613fd3565b9050919050565b61400861400382612e59565b613fe5565b82525050565b6000819050919050565b61402961402482612fcc565b61400e565b82525050565b600061403b8286613ff7565b60148201915061404b8285613e1c565b91506140578284614018565b602082019150819050949350505050565b7f19457468657265756d205369676e6564204d6573736167653a0a333200000000600082015250565b600061409e601c83613d7d565b91506140a982614068565b601c82019050919050565b6000819050919050565b6000819050919050565b6140d96140d4826140b4565b6140be565b82525050565b60006140ea82614091565b91506140f682846140c8565b60208201915081905092915050565b61410e816140b4565b82525050565b600060ff82169050919050565b61412a81614114565b82525050565b60006080820190506141456000830187614105565b6141526020830186614121565b61415f6040830185614105565b61416c6060830184614105565b95945050505050565b7f4552433732313a207472616e736665722066726f6d20696e636f72726563742060008201527f6f776e6572000000000000000000000000000000000000000000000000000000602082015250565b60006141d1602583612d89565b91506141dc82614175565b604082019050919050565b60006020820190508181036000830152614200816141c4565b9050919050565b7f4552433732313a207472616e7366657220746f20746865207a65726f2061646460008201527f7265737300000000000000000000000000000000000000000000000000000000602082015250565b6000614263602483612d89565b915061426e82614207565b604082019050919050565b6000602082019050818103600083015261429281614256565b9050919050565b7f4e65656420746f2073656e64206d6f7265204554482e00000000000000000000600082015250565b60006142cf601683612d89565b91506142da82614299565b602082019050919050565b600060208201905081810360008301526142fe816142c2565b9050919050565b600061431082612fcc565b915061431b83612fcc565b92508282101561432e5761432d6137ae565b5b828203905092915050565b7f4552433732313a20617070726f766520746f2063616c6c657200000000000000600082015250565b600061436f601983612d89565b915061437a82614339565b602082019050919050565b6000602082019050818103600083015261439e81614362565b9050919050565b7f4552433732313a207472616e7366657220746f206e6f6e20455243373231526560008201527f63656976657220696d706c656d656e7465720000000000000000000000000000602082015250565b6000614401603283612d89565b915061440c826143a5565b604082019050919050565b60006020820190508181036000830152614430816143f4565b9050919050565b7f696e76616c6964207369676e6174757265206c656e6774680000000000000000600082015250565b600061446d601883612d89565b915061447882614437565b602082019050919050565b6000602082019050818103600083015261449c81614460565b9050919050565b600081519050919050565b600082825260208201905092915050565b60006144ca826144a3565b6144d481856144ae565b93506144e4818560208601612d9a565b6144ed81612dcd565b840191505092915050565b600060808201905061450d600083018761316f565b61451a602083018661316f565b61452760408301856131d9565b818103606083015261453981846144bf565b905095945050505050565b60008151905061455381612cef565b92915050565b60006020828403121561456f5761456e612c50565b5b600061457d84828501614544565b91505092915050565b7f455243373231456e756d657261626c653a20636f6e736563757469766520747260008201527f616e7366657273206e6f7420737570706f727465640000000000000000000000602082015250565b60006145e2603583612d89565b91506145ed82614586565b604082019050919050565b60006020820190508181036000830152614611816145d5565b9050919050565b7f4552433732313a206d696e7420746f20746865207a65726f2061646472657373600082015250565b600061464e602083612d89565b915061465982614618565b602082019050919050565b6000602082019050818103600083015261467d81614641565b9050919050565b7f4552433732313a20746f6b656e20616c7265616479206d696e74656400000000600082015250565b60006146ba601c83612d89565b91506146c582614684565b602082019050919050565b600060208201905081810360008301526146e9816146ad565b9050919050565b7f4e487b7100000000000000000000000000000000000000000000000000000000600052603160045260246000fdfea2646970667358221220eadffbfc9ce972c3116959312f86d8b1374fcd5c8ec55a5b832aa7c7ca5f823964736f6c63430008090033",
  "linkReferences": {},
  "deployedLinkReferences": {}
}